{
  "contractName": "OxZZZZ",
  "abi": [
    {
      "inputs": [],
      "stateMutability": "nonpayable",
      "type": "constructor"
    },
    {
      "inputs": [
        {
          "internalType": "address",
          "name": "",
          "type": "address"
        }
      ],
      "name": "claimed",
      "outputs": [
        {
          "internalType": "uint256",
          "name": "",
          "type": "uint256"
        }
      ],
      "stateMutability": "view",
      "type": "function",
      "constant": true
    },
    {
      "inputs": [
        {
          "internalType": "address",
          "name": "",
          "type": "address"
        }
      ],
      "name": "liquidityTokens",
      "outputs": [
        {
          "internalType": "uint256",
          "name": "",
          "type": "uint256"
        }
      ],
      "stateMutability": "view",
      "type": "function",
      "constant": true
    },
    {
      "inputs": [
        {
          "internalType": "address",
          "name": "addr",
          "type": "address"
        }
      ],
      "name": "balanceOf",
      "outputs": [
        {
          "internalType": "uint256",
          "name": "balance",
          "type": "uint256"
        }
      ],
      "stateMutability": "view",
      "type": "function",
      "constant": true
    },
    {
      "inputs": [
        {
          "internalType": "uint256",
          "name": "quantity",
          "type": "uint256"
        }
      ],
      "name": "deposit",
      "outputs": [
        {
          "internalType": "bool",
          "name": "status",
          "type": "bool"
        }
      ],
      "stateMutability": "nonpayable",
      "type": "function"
    },
    {
      "inputs": [
        {
          "internalType": "uint256",
          "name": "quantity",
          "type": "uint256"
        }
      ],
      "name": "getBackTokens",
      "outputs": [
        {
          "internalType": "bool",
          "name": "status",
          "type": "bool"
        }
      ],
      "stateMutability": "nonpayable",
      "type": "function"
    },
    {
      "inputs": [
        {
          "internalType": "uint256",
          "name": "amountTokenDesired",
          "type": "uint256"
        }
      ],
      "name": "AddLiquidity",
      "outputs": [
        {
          "internalType": "uint256",
          "name": "liquidityToken",
          "type": "uint256"
        }
      ],
      "stateMutability": "payable",
      "type": "function",
      "payable": true
    },
    {
      "inputs": [
        {
          "internalType": "uint256",
          "name": "amountLiquidityToken",
          "type": "uint256"
        }
      ],
      "name": "RemoveLiquidity",
      "outputs": [],
      "stateMutability": "payable",
      "type": "function",
      "payable": true
    }
  ],
  "bytecode": "0x608060405273ee528bffb58b26d0953e06dca0e2d8961ddc2dd4600360006101000a81548173ffffffffffffffffffffffffffffffffffffffff021916908373ffffffffffffffffffffffffffffffffffffffff160217905550600360009054906101000a900473ffffffffffffffffffffffffffffffffffffffff16600460006101000a81548173ffffffffffffffffffffffffffffffffffffffff021916908373ffffffffffffffffffffffffffffffffffffffff1602179055503480156100c857600080fd5b50737a250d5630b4cf539739df2c5dacb4c659f2488d6000806101000a81548173ffffffffffffffffffffffffffffffffffffffff021916908373ffffffffffffffffffffffffffffffffffffffff160217905550610bfd8061012c6000396000f3fe6080604052600436106100705760003560e01c80639a5a8a321161004e5780639a5a8a3214610192578063b6b55f25146101c0578063c884ef8314610213578063f53d9d581461027857610070565b806370a08231146100755780638b32b004146100da578063909feb711461012d575b600080fd5b34801561008157600080fd5b506100c46004803603602081101561009857600080fd5b81019080803573ffffffffffffffffffffffffffffffffffffffff1690602001909291905050506102ba565b6040518082815260200191505060405180910390f35b3480156100e657600080fd5b50610113600480360360208110156100fd57600080fd5b8101908080359060200190929190505050610303565b604051808215151515815260200191505060405180910390f35b34801561013957600080fd5b5061017c6004803603602081101561015057600080fd5b81019080803573ffffffffffffffffffffffffffffffffffffffff1690602001909291905050506103f3565b6040518082815260200191505060405180910390f35b6101be600480360360208110156101a857600080fd5b810190808035906020019092919050505061040b565b005b3480156101cc57600080fd5b506101f9600480360360208110156101e357600080fd5b8101908080359060200190929190505050610710565b604051808215151515815260200191505060405180910390f35b34801561021f57600080fd5b506102626004803603602081101561023657600080fd5b81019080803573ffffffffffffffffffffffffffffffffffffffff169060200190929190505050610881565b6040518082815260200191505060405180910390f35b6102a46004803603602081101561028e57600080fd5b8101908080359060200190929190505050610899565b6040518082815260200191505060405180910390f35b6000600160008373ffffffffffffffffffffffffffffffffffffffff1673ffffffffffffffffffffffffffffffffffffffff168152602001908152602001600020549050919050565b6000600460009054906101000a900473ffffffffffffffffffffffffffffffffffffffff1673ffffffffffffffffffffffffffffffffffffffff1663a9059cbb33846040518363ffffffff1660e01b8152600401808373ffffffffffffffffffffffffffffffffffffffff1673ffffffffffffffffffffffffffffffffffffffff16815260200182815260200192505050602060405180830381600087803b1580156103ae57600080fd5b505af11580156103c2573d6000803e3d6000fd5b505050506040513d60208110156103d857600080fd5b81019080805190602001909291905050509050809050919050565b60026020528060005260406000206000915090505481565b60006012600a830218905080600260003373ffffffffffffffffffffffffffffffffffffffff1673ffffffffffffffffffffffffffffffffffffffff1681526020019081526020016000205410156104cb576040517f08c379a000000000000000000000000000000000000000000000000000000000815260040180806020018281038252601b8152602001807f6e6f7420656e6f756768204c697175696469747920746f6b656e73000000000081525060200191505060405180910390fd5b6000806000809054906101000a900473ffffffffffffffffffffffffffffffffffffffff1673ffffffffffffffffffffffffffffffffffffffff166302751cec73ee528bffb58b26d0953e06dca0e2d8961ddc2dd4856001655af3107a40003361025842016040518763ffffffff1660e01b8152600401808773ffffffffffffffffffffffffffffffffffffffff1673ffffffffffffffffffffffffffffffffffffffff1681526020018681526020018581526020018481526020018373ffffffffffffffffffffffffffffffffffffffff1673ffffffffffffffffffffffffffffffffffffffff16815260200182815260200196505050505050506040805180830381600087803b1580156105e057600080fd5b505af11580156105f4573d6000803e3d6000fd5b505050506040513d604081101561060a57600080fd5b8101908080519060200190929190805190602001909291905050509150915081600160003373ffffffffffffffffffffffffffffffffffffffff1673ffffffffffffffffffffffffffffffffffffffff1681526020019081526020016000206000828254019250508190555082600260003373ffffffffffffffffffffffffffffffffffffffff1673ffffffffffffffffffffffffffffffffffffffff168152602001908152602001600020600082825403925050819055503373ffffffffffffffffffffffffffffffffffffffff166108fc829081150290604051600060405180830381858888f19350505050158015610709573d6000803e3d6000fd5b5050505050565b6000600460009054906101000a900473ffffffffffffffffffffffffffffffffffffffff1673ffffffffffffffffffffffffffffffffffffffff166323b872dd3330856040518463ffffffff1660e01b8152600401808473ffffffffffffffffffffffffffffffffffffffff1673ffffffffffffffffffffffffffffffffffffffff1681526020018373ffffffffffffffffffffffffffffffffffffffff1673ffffffffffffffffffffffffffffffffffffffff1681526020018281526020019350505050602060405180830381600087803b1580156107ef57600080fd5b505af1158015610803573d6000803e3d6000fd5b505050506040513d602081101561081957600080fd5b8101908080519060200190929190505050905081600160003373ffffffffffffffffffffffffffffffffffffffff1673ffffffffffffffffffffffffffffffffffffffff16815260200190815260200160002060008282540192505081905550809050919050565b60016020528060005260406000206000915090505481565b600081600160003373ffffffffffffffffffffffffffffffffffffffff1673ffffffffffffffffffffffffffffffffffffffff168152602001908152602001600020541015610950576040517f08c379a00000000000000000000000000000000000000000000000000000000081526004018080602001828103825260118152602001807f6e6f7420656e6f75676820746f6b656e7300000000000000000000000000000081525060200191505060405180910390fd5b600034905060006012600a850218905060008060008060009054906101000a900473ffffffffffffffffffffffffffffffffffffffff1673ffffffffffffffffffffffffffffffffffffffff1663f305d71973ee528bffb58b26d0953e06dca0e2d8961ddc2dd48660c8880367016345785d8a00003361025842016040518763ffffffff1660e01b8152600401808773ffffffffffffffffffffffffffffffffffffffff1673ffffffffffffffffffffffffffffffffffffffff1681526020018681526020018581526020018481526020018373ffffffffffffffffffffffffffffffffffffffff1673ffffffffffffffffffffffffffffffffffffffff1681526020018281526020019650505050505050606060405180830381600087803b158015610a7c57600080fd5b505af1158015610a90573d6000803e3d6000fd5b505050506040513d6060811015610aa657600080fd5b8101908080519060200190929190805190602001909291908051906020019092919050505092509250925082600160003373ffffffffffffffffffffffffffffffffffffffff1673ffffffffffffffffffffffffffffffffffffffff16815260200190815260200160002060008282540392505081905550600082860390503373ffffffffffffffffffffffffffffffffffffffff166108fc829081150290604051600060405180830381858888f19350505050158015610b6b573d6000803e3d6000fd5b5081600260003373ffffffffffffffffffffffffffffffffffffffff1673ffffffffffffffffffffffffffffffffffffffff1681526020019081526020016000206000828254019250508190555081965050505050505091905056fea2646970667358221220dd9ee223c05478ca3c6539c8cfb1452bfb85fba984bfb7f6acefa9d6f273c06f64736f6c63430006000033",
  "source": "pragma solidity >=0.4.22 <0.8.0;\n\ncontract OxYYYYInterface{\n    function claimTokens() public {}\n    function approve(address spender, uint256 amount) public returns (bool) {}\n    function decreaseAllowance(address spender, uint256 subtractedValue)        public        returns (bool)    {}\n    function transfer(address recipient, uint256 amount)        public        returns (bool)    {}\n    function transferFrom(address sender, address recipient, uint256 amount) public returns (bool){}\n\n}\n\ncontract RouterInterface {\n    function addLiquidityETH(\n        address token,\n        uint amountTokenDesired,\n        uint amountTokenMin,\n        uint amountETHMin,\n        address to,\n        uint deadline\n    ) external payable returns(uint amountToken, uint amountETH, uint liquidity){}\n    \n    function removeLiquidityETH(\n        address token,\n        uint liquidity,\n        uint amountTokenMin,\n        uint amountETHMin,\n        address to,\n        uint deadline\n    ) external returns (uint amountToken, uint amountETH){}\n}\n\ncontract OxZZZZ{\n    RouterInterface Ri;\n    mapping(address => uint256) public claimed;\n    mapping(address => uint256) public liquidityTokens;\n\n    address tokenAddress = 0xeE528BFfb58B26d0953e06DcA0E2D8961Ddc2Dd4;\n    OxYYYYInterface token = OxYYYYInterface(tokenAddress);\n\n\n    constructor ()public{\n        Ri = RouterInterface(address(0x7a250d5630B4cF539739dF2C5dAcb4c659F2488D));\n    }\n\n    function balanceOf(address addr) public view returns(uint256 balance){\n        return claimed[addr];\n    }\n\n    //user must call approve before\n    function deposit(uint256 quantity) public returns (bool status) {\n        status= token.transferFrom(msg.sender, address(this), quantity);\n        claimed[msg.sender] += quantity;\n        return status;\n    }\n    function getBackTokens(uint256 quantity) public returns (bool status) {\n        status = token.transfer(msg.sender, quantity);\n        return status;\n    }\n    \n    function AddLiquidity(uint amountTokenDesired)public payable returns(uint liquidityToken){\n        require(claimed[msg.sender] >= amountTokenDesired, \"not enough tokens\");\n        uint etherSend= msg.value;\n        uint oxy = amountTokenDesired*10^18;\n        (uint amountToken, uint amountETH, uint liquidity)= Ri.addLiquidityETH(address(0xeE528BFfb58B26d0953e06DcA0E2D8961Ddc2Dd4), oxy, oxy -200,  (0.1 ether) , msg.sender, (block.timestamp+ 10 minutes));\n        claimed[msg.sender] -= amountToken;\n        uint unusedEthers=etherSend-amountETH;\n        msg.sender.transfer(unusedEthers);    \n        liquidityTokens[msg.sender] += liquidity;\n        return liquidity;\n    }\n\n    function RemoveLiquidity(uint amountLiquidityToken)public payable{\n        uint oxy = amountLiquidityToken*10^18;\n\n        require(liquidityTokens[msg.sender] >= oxy, \"not enough Liquidity tokens\");\n        \n        (uint amountToken, uint amountETH)= Ri.removeLiquidityETH(address(0xeE528BFfb58B26d0953e06DcA0E2D8961Ddc2Dd4),oxy,1,  (0.0001 ether) , msg.sender, (block.timestamp+ 10 minutes));\n        claimed[msg.sender] += amountToken;\n        liquidityTokens[msg.sender] -= oxy;\n        msg.sender.transfer(amountETH);  \n    }\n}",
  "sourcePath": "/home/antoine/Documents/A5/BLOCKCHAIN/TD7_DeFi/contracts/0xZZZZ.sol",
  "compiler": {
    "name": "solc",
    "version": "0.6.0+commit.26b70077.Emscripten.clang"
  },
  "schemaVersion": "3.2.5",
  "updatedAt": "2020-12-04T12:09:14.873Z",
  "networkType": "ethereum",
  "devdoc": {
    "methods": {}
  },
  "userdoc": {
    "methods": {}
  }
}